{
  "contractName": "RedVsBlue",
  "abi": [
    {
      "inputs": [],
      "payable": false,
      "stateMutability": "nonpayable",
      "type": "constructor"
    },
    {
      "anonymous": false,
      "inputs": [],
      "name": "NewVoteCast",
      "type": "event"
    },
    {
      "constant": true,
      "inputs": [],
      "name": "owner_address",
      "outputs": [
        {
          "internalType": "address",
          "name": "",
          "type": "address"
        }
      ],
      "payable": false,
      "stateMutability": "view",
      "type": "function"
    },
    {
      "constant": false,
      "inputs": [],
      "name": "BuyCredits",
      "outputs": [
        {
          "internalType": "bool",
          "name": "",
          "type": "bool"
        }
      ],
      "payable": true,
      "stateMutability": "payable",
      "type": "function"
    },
    {
      "constant": false,
      "inputs": [
        {
          "internalType": "uint256",
          "name": "amount",
          "type": "uint256"
        }
      ],
      "name": "WithdrawCredits",
      "outputs": [],
      "payable": false,
      "stateMutability": "nonpayable",
      "type": "function"
    },
    {
      "constant": true,
      "inputs": [],
      "name": "GetCreditBalance",
      "outputs": [
        {
          "internalType": "uint256",
          "name": "",
          "type": "uint256"
        }
      ],
      "payable": false,
      "stateMutability": "view",
      "type": "function"
    },
    {
      "constant": true,
      "inputs": [
        {
          "internalType": "uint256",
          "name": "index",
          "type": "uint256"
        }
      ],
      "name": "GetGameTotals",
      "outputs": [
        {
          "internalType": "uint256",
          "name": "",
          "type": "uint256"
        },
        {
          "internalType": "uint256",
          "name": "",
          "type": "uint256"
        }
      ],
      "payable": false,
      "stateMutability": "view",
      "type": "function"
    },
    {
      "constant": true,
      "inputs": [
        {
          "internalType": "uint256",
          "name": "game_id",
          "type": "uint256"
        }
      ],
      "name": "GetEarnings",
      "outputs": [
        {
          "internalType": "uint256",
          "name": "",
          "type": "uint256"
        },
        {
          "internalType": "uint256",
          "name": "",
          "type": "uint256"
        },
        {
          "internalType": "bool",
          "name": "",
          "type": "bool"
        }
      ],
      "payable": false,
      "stateMutability": "view",
      "type": "function"
    },
    {
      "constant": false,
      "inputs": [
        {
          "internalType": "uint256",
          "name": "game_id",
          "type": "uint256"
        }
      ],
      "name": "ClaimEarnings",
      "outputs": [],
      "payable": false,
      "stateMutability": "nonpayable",
      "type": "function"
    },
    {
      "constant": false,
      "inputs": [
        {
          "internalType": "uint256",
          "name": "amount",
          "type": "uint256"
        },
        {
          "internalType": "enum RedVsBlue.VoteType",
          "name": "vote_type",
          "type": "uint8"
        }
      ],
      "name": "CastVote",
      "outputs": [],
      "payable": false,
      "stateMutability": "nonpayable",
      "type": "function"
    }
  ],
  "bytecode": "0x608060405234801561001057600080fd5b50336000806101000a81548173ffffffffffffffffffffffffffffffffffffffff021916908373ffffffffffffffffffffffffffffffffffffffff160217905550611376806100606000396000f3fe60806040526004361061007b5760003560e01c8063d3d6752d1161004e578063d3d6752d14610178578063d509b709146101c0578063e53f03bb146101e2578063ec007ad4146102435761007b565b806375a2e6241461008057806380edef8e146100ab578063af3282dd14610102578063ced4dc821461013d575b600080fd5b34801561008c57600080fd5b50610095610299565b6040518082815260200191505060405180910390f35b3480156100b757600080fd5b506100c06102e3565b604051808273ffffffffffffffffffffffffffffffffffffffff1673ffffffffffffffffffffffffffffffffffffffff16815260200191505060405180910390f35b34801561010e57600080fd5b5061013b6004803603602081101561012557600080fd5b8101908080359060200190929190505050610308565b005b34801561014957600080fd5b506101766004803603602081101561016057600080fd5b810190808035906020019092919050505061061a565b005b34801561018457600080fd5b506101be6004803603604081101561019b57600080fd5b8101908080359060200190929190803560ff1690602001909291905050506107b7565b005b6101c8610b3e565b604051808215151515815260200191505060405180910390f35b3480156101ee57600080fd5b5061021b6004803603602081101561020557600080fd5b8101908080359060200190929190505050610b97565b6040518084815260200183815260200182151515158152602001935050505060405180910390f35b34801561024f57600080fd5b5061027c6004803603602081101561026657600080fd5b8101908080359060200190929190505050610f7f565b604051808381526020018281526020019250505060405180910390f35b6000600160003373ffffffffffffffffffffffffffffffffffffffff1673ffffffffffffffffffffffffffffffffffffffff16815260200190815260200160002060020154905090565b6000809054906101000a900473ffffffffffffffffffffffffffffffffffffffff1681565b60006080438161031457fe5b0490508082141561038d576040517f08c379a000000000000000000000000000000000000000000000000000000000815260040180806020018281038252601d8152602001807f43616e6e6f7420636c61696d20666f722061637469766520726f756e6400000081525060200191505060405180910390fd5b60001515600160003373ffffffffffffffffffffffffffffffffffffffff1673ffffffffffffffffffffffffffffffffffffffff168152602001908152602001600020600101600084815260200190815260200160002060009054906101000a900460ff16151514610467576040517f08c379a000000000000000000000000000000000000000000000000000000000815260040180806020018281038252601d8152602001807f446f75626c6520636c61696d3f206e617567687479206e61756768747900000081525060200191505060405180910390fd5b600080600061047585610b97565b8093508194508295505050506000831180156104915750600082115b801561049b575080155b61050d576040517f08c379a000000000000000000000000000000000000000000000000000000000815260040180806020018281038252601f8152602001807f43616e2774206d616b65207768617420796f7520646f6e2774207370656e640081525060200191505060405180910390fd5b60018060003373ffffffffffffffffffffffffffffffffffffffff1673ffffffffffffffffffffffffffffffffffffffff168152602001908152602001600020600101600087815260200190815260200160002060006101000a81548160ff0219169083151502179055506105cd83600160003373ffffffffffffffffffffffffffffffffffffffff1673ffffffffffffffffffffffffffffffffffffffff16815260200190815260200160002060020154610fd090919063ffffffff16565b600160003373ffffffffffffffffffffffffffffffffffffffff1673ffffffffffffffffffffffffffffffffffffffff168152602001908152602001600020600201819055505050505050565b600160003373ffffffffffffffffffffffffffffffffffffffff1673ffffffffffffffffffffffffffffffffffffffff168152602001908152602001600020600201548111156106d2576040517f08c379a00000000000000000000000000000000000000000000000000000000081526004018080602001828103825260128152602001807f4e6f7420656e6f7567682063726564697473000000000000000000000000000081525060200191505060405180910390fd5b61072781600160003373ffffffffffffffffffffffffffffffffffffffff1673ffffffffffffffffffffffffffffffffffffffff1681526020019081526020016000206002015461105890919063ffffffff16565b600160003373ffffffffffffffffffffffffffffffffffffffff1673ffffffffffffffffffffffffffffffffffffffff168152602001908152602001600020600201819055503373ffffffffffffffffffffffffffffffffffffffff166108fc829081150290604051600060405180830381858888f193505050501580156107b3573d6000803e3d6000fd5b5050565b600160003373ffffffffffffffffffffffffffffffffffffffff1673ffffffffffffffffffffffffffffffffffffffff1681526020019081526020016000206002015482111561086f576040517f08c379a00000000000000000000000000000000000000000000000000000000081526004018080602001828103825260128152602001807f4e6f7420656e6f7567682063726564697473000000000000000000000000000081525060200191505060405180910390fd5b610877611315565b6080438161088157fe5b048160000181815250508281602001818152505081816040019060018111156108a657fe5b908160018111156108b357fe5b81525050600060018111156108c457fe5b8260018111156108d057fe5b1415610932576109098360026000608043816108e857fe5b04815260200190815260200160002060000154610fd090919063ffffffff16565b600260006080438161091757fe5b048152602001908152602001600020600001819055506109a9565b60018081111561093e57fe5b82600181111561094a57fe5b14156109a85761098383600260006080438161096257fe5b04815260200190815260200160002060010154610fd090919063ffffffff16565b600260006080438161099157fe5b048152602001908152602001600020600101819055505b5b6109fe83600160003373ffffffffffffffffffffffffffffffffffffffff1673ffffffffffffffffffffffffffffffffffffffff1681526020019081526020016000206002015461105890919063ffffffff16565b600160003373ffffffffffffffffffffffffffffffffffffffff1673ffffffffffffffffffffffffffffffffffffffff16815260200190815260200160002060020181905550600160003373ffffffffffffffffffffffffffffffffffffffff1673ffffffffffffffffffffffffffffffffffffffff168152602001908152602001600020600001600060804381610a9257fe5b0481526020019081526020016000208190806001815401808255809150509060018203906000526020600020906003020160009091929091909150600082015181600001556020820151816001015560408201518160020160006101000a81548160ff02191690836001811115610b0557fe5b02179055505050507fd78a73ee3544d35f09b89e506c194e992ebf707e8cf982222eca1e577f3be49160405160405180910390a1505050565b600034600160003373ffffffffffffffffffffffffffffffffffffffff1673ffffffffffffffffffffffffffffffffffffffff168152602001908152602001600020600201600082825401925050819055506001905090565b60008060008060804381610ba757fe5b04905080851115610bb757600080fd5b600080905060008090506000600160003373ffffffffffffffffffffffffffffffffffffffff1673ffffffffffffffffffffffffffffffffffffffff168152602001908152602001600020600101600089815260200190815260200160002060009054906101000a900460ff16905060008090505b600160003373ffffffffffffffffffffffffffffffffffffffff1673ffffffffffffffffffffffffffffffffffffffff16815260200190815260200160002060000160008a815260200190815260200160002080549050811015610f6a576000600260008b81526020019081526020016000206000015490506000600260008c81526020019081526020016000206001015490506000600160003373ffffffffffffffffffffffffffffffffffffffff1673ffffffffffffffffffffffffffffffffffffffff16815260200190815260200160002060000160008d81526020019081526020016000208481548110610d2057fe5b9060005260206000209060030201600101549050610d478187610fd090919063ffffffff16565b955081831415610d6b57610d648188610fd090919063ffffffff16565b9650610f5a565b60006001811115610d7857fe5b600160003373ffffffffffffffffffffffffffffffffffffffff1673ffffffffffffffffffffffffffffffffffffffff16815260200190815260200160002060000160008e81526020019081526020016000208581548110610dd657fe5b906000526020600020906003020160020160009054906101000a900460ff166001811115610e0057fe5b148015610e0c57508183115b15610e6457610e48610e3984610e2b84866110a290919063ffffffff16565b61114590919063ffffffff16565b88610fd090919063ffffffff16565b9650610e5d8188610fd090919063ffffffff16565b9650610f59565b600180811115610e7057fe5b600160003373ffffffffffffffffffffffffffffffffffffffff1673ffffffffffffffffffffffffffffffffffffffff16815260200190815260200160002060000160008e81526020019081526020016000208581548110610ece57fe5b906000526020600020906003020160020160009054906101000a900460ff166001811115610ef857fe5b148015610f0457508282115b15610f5857610f40610f3183610f2384876110a290919063ffffffff16565b61114590919063ffffffff16565b88610fd090919063ffffffff16565b9650610f558188610fd090919063ffffffff16565b96505b5b5b5050508080600101915050610c2c565b50828282965096509650505050509193909250565b60008060804381610f8c57fe5b04831115610f9957600080fd5b6002600084815260200190815260200160002060000154600260008581526020019081526020016000206001015491509150915091565b60008082840190508381101561104e576040517f08c379a00000000000000000000000000000000000000000000000000000000081526004018080602001828103825260068152602001807f2b206f666c77000000000000000000000000000000000000000000000000000081525060200191505060405180910390fd5b8091505092915050565b600061109a83836040518060400160405280600681526020017f2d206f666c77000000000000000000000000000000000000000000000000000081525061118f565b905092915050565b6000808314156110b5576000905061113f565b60008284029050828482816110c657fe5b041461113a576040517f08c379a00000000000000000000000000000000000000000000000000000000081526004018080602001828103825260068152602001807f2a206f666c77000000000000000000000000000000000000000000000000000081525060200191505060405180910390fd5b809150505b92915050565b600061118783836040518060400160405280600381526020017f2f2030000000000000000000000000000000000000000000000000000000000081525061124f565b905092915050565b600083831115829061123c576040517f08c379a00000000000000000000000000000000000000000000000000000000081526004018080602001828103825283818151815260200191508051906020019080838360005b838110156112015780820151818401526020810190506111e6565b50505050905090810190601f16801561122e5780820380516001836020036101000a031916815260200191505b509250505060405180910390fd5b5060008385039050809150509392505050565b600080831182906112fb576040517f08c379a00000000000000000000000000000000000000000000000000000000081526004018080602001828103825283818151815260200191508051906020019080838360005b838110156112c05780820151818401526020810190506112a5565b50505050905090810190601f1680156112ed5780820380516001836020036101000a031916815260200191505b509250505060405180910390fd5b50600083858161130757fe5b049050809150509392505050565b604051806060016040528060008152602001600081526020016000600181111561133b57fe5b8152509056fea265627a7a72315820c2b2d11822dbadc4a638248d83de497891771e20dfc8fa2b8b1a7859486c5d5d64736f6c63430005100032",
  "source": "pragma solidity >=0.4.22 <0.8.0;\n\nimport \"./SafeMath.sol\";\n\n/*\n *  Idea - RedVsBlue is a one-side-wins-it-all voting game for degens.\n *\n *  There are two sides, Red, and Blue. You pick which one you want and cast\n *  a vote for the corresponding side. Each poll runs for some specified amount\n *  of time - this can be done daily or weekly by the contract owner.\n *\n *  The contract address collects 0.2% (0.002) of the voted total for sponsoring\n *  the next red-vs-blue poll.\n *\n *  The voting ends after the specified interval and people who have bet on the\n *  winning side are paid out per the following math:\n *\n *  u0 = user's bet on the winning team\n *  w = winning total bets\n *  l = losing total bets (l < w!)\n *\n *  fee = 0.002                             // .2% fee for contract maintenence\n *  profit = (u0 / w) * ((1.0 - fee) * l)\n *  fees   = (u0 / w) * fee * l\n *\n *  In the event of a tie (oh so rare!), we flip a coin and truly leave things\n *  to lady luck.\n *\n *  TODO:\n *  =====\n *  As it stands, one address can only make one vote. This is likely ok.\n *\n *  Not sure how we can deploy the PeriodicPoll each period automatically once\n *  a poll ends. This might have to be a service we run on VM which responds to\n *  the poll closed event and has the delegation to issue the next event etc.\n *      -> This could even be a SaaS idea for blockchain etc\n *      -> A responder for web3 events (ifttt?)\n */\ncontract RedVsBlue {\n    enum VoteType { VOTE_RED, VOTE_BLUE }\n\n    using SafeMath for uint256;\n\n    uint constant BLOCK_DIV = 128;\n\n    /*\n     *  A `Vote` is the core of the is contract, this corresponds to some amount\n     *  of ether (or X) being bet for the specified block number. The block\n     *  number is of significance since each bet that a user makes falls within\n     *  a `game` which spans `BLOCK_DIV` blocks.\n     */\n    struct Vote {\n        uint256  game_id;   /* block.number / `BLOCK_DIV` */\n        uint256  amount;    /* credits, 1 eth = 1000 credits */\n        VoteType vote_type; /* red or blue? */\n    }\n\n    /*\n     *  A `Poll` represents one of the `BLOCK_DIV` block polls.\n     */\n    struct Poll {\n        uint256 red_total;\n        uint256 blue_total;\n    }\n\n    /*\n     *  A `Voter` represents one player's balance, votes and amount in play.\n     */\n    struct Voter {\n        mapping(uint256 => Vote[]) votes;\n        mapping(uint256 => bool) claimed;\n        uint256 credits;\n    }\n\n    address public owner_address;\n    mapping(address => Voter) private voters;\n    mapping(uint256 => Poll) private poll_totals;\n\n    /*\n     *  The poll broadcast will automatically encode the block number that the\n     *  log was created with. This will emit the current rounds totals for the\n     *  red and blue votes so any active UIs may update their values (in\n     *  stream).\n     */\n    event NewVoteCast();\n\n    constructor() public {\n        owner_address = msg.sender;\n    }\n\n    function BuyCredits() public payable returns (bool) {\n        // voters[msg.sender].credits = voters[msg.sender].credits.add(msg.value);\n        voters[msg.sender].credits += msg.value;\n        return true;\n    }\n\n    function WithdrawCredits(uint amount) public {\n        require(amount <= voters[msg.sender].credits, \"Not enough credits\");\n        voters[msg.sender].credits = voters[msg.sender].credits.sub(amount);\n        msg.sender.transfer(amount);\n    }\n\n    function GetCreditBalance() public view returns (uint) {\n        return voters[msg.sender].credits;\n    }\n\n    function GetGameTotals(uint index) public view returns (uint, uint) {\n        require(index <= (block.number / BLOCK_DIV));\n        return (poll_totals[index].red_total, poll_totals[index].blue_total);\n    }\n\n    function GetEarnings(uint game_id) public view returns (uint, uint, bool) {\n        uint current_game_id = block.number / BLOCK_DIV;\n        require(game_id <= current_game_id);\n\n        uint256 earned = 0;                                 /* Round winnings */\n        uint256 spent = 0;                                  /* Spend counter  */\n        bool claimed = voters[msg.sender].claimed[game_id]; /* Naughty check  */\n\n        for (uint i = 0; i < voters[msg.sender].votes[game_id].length; i++) {\n            uint256 r = poll_totals[game_id].red_total;\n            uint256 b = poll_totals[game_id].blue_total;\n            uint256 amt = voters[msg.sender].votes[game_id][i].amount;\n\n            spent = spent.add(amt);\n            if (r == b) {\n                earned = earned.add(amt);\n            } else if (voters[msg.sender].votes[game_id][i].vote_type == VoteType.VOTE_RED && r > b) {\n                earned = earned.add(((b.mul(amt)).div(r)));\n                earned = earned.add(amt);\n            } else if (voters[msg.sender].votes[game_id][i].vote_type == VoteType.VOTE_BLUE && b > r) {\n                earned = earned.add(((r.mul(amt)).div(b)));\n                earned = earned.add(amt);\n            }\n        }\n        return (earned, spent, claimed);\n    }\n\n    function ClaimEarnings(uint game_id) public {\n        uint256 current_game_id = block.number / BLOCK_DIV;\n        require(game_id != current_game_id, \"Cannot claim for active round\");\n        require(voters[msg.sender].claimed[game_id] == false, \"Double claim? naughty naughty\");\n\n        uint256 earned;\n        uint256 spent;\n        bool claimed;\n        (earned, spent, claimed) = GetEarnings(game_id);\n        require(earned > 0 && spent > 0 && !claimed, \"Can't make what you don't spend\");\n\n        voters[msg.sender].claimed[game_id] = true;\n        voters[msg.sender].credits = voters[msg.sender].credits.add(earned);\n        return;\n    }\n\n    function CastVote(uint amount, VoteType vote_type) public {\n        require(amount <= voters[msg.sender].credits, \"Not enough credits\");\n\n        Vote memory v;\n        v.game_id = block.number / BLOCK_DIV;\n        v.amount = amount;\n        v.vote_type = vote_type;\n        if (vote_type == VoteType.VOTE_RED) {\n            poll_totals[block.number / BLOCK_DIV].red_total = poll_totals[block.number / BLOCK_DIV].red_total.add(amount);\n        } else if (vote_type == VoteType.VOTE_BLUE) {\n            poll_totals[block.number / BLOCK_DIV].blue_total = poll_totals[block.number / BLOCK_DIV].blue_total.add(amount);\n        }\n        voters[msg.sender].credits = voters[msg.sender].credits.sub(amount);\n        voters[msg.sender].votes[block.number / BLOCK_DIV].push(v);\n        emit NewVoteCast();\n    }\n}\n\n",
  "sourcePath": "/home/shaba/work/github/crypto/Red-vs-Blu/red-vs-blue/contracts/RedVsBlue.sol",
  "compiler": {
    "name": "solc",
    "version": "0.5.16+commit.9c3226ce.Emscripten.clang"
  },
  "schemaVersion": "3.2.3",
  "updatedAt": "2020-08-26T22:53:19.686Z",
  "networkType": "ethereum",
  "devdoc": {
    "methods": {}
  },
  "userdoc": {
    "methods": {}
  }
}