{
  "contractName": "RedVsBlue",
  "abi": [
    {
      "inputs": [],
      "payable": false,
      "stateMutability": "nonpayable",
      "type": "constructor"
    },
    {
      "anonymous": false,
      "inputs": [
        {
          "indexed": false,
          "internalType": "uint256",
          "name": "red_amount",
          "type": "uint256"
        },
        {
          "indexed": false,
          "internalType": "uint256",
          "name": "blue_amount",
          "type": "uint256"
        }
      ],
      "name": "VoteBoradcastEvent",
      "type": "event"
    },
    {
      "constant": true,
      "inputs": [],
      "name": "owner_address",
      "outputs": [
        {
          "internalType": "address",
          "name": "",
          "type": "address"
        }
      ],
      "payable": false,
      "stateMutability": "view",
      "type": "function"
    },
    {
      "constant": false,
      "inputs": [],
      "name": "BuyCredits",
      "outputs": [
        {
          "internalType": "bool",
          "name": "",
          "type": "bool"
        }
      ],
      "payable": true,
      "stateMutability": "payable",
      "type": "function"
    },
    {
      "constant": false,
      "inputs": [
        {
          "internalType": "uint256",
          "name": "amount",
          "type": "uint256"
        }
      ],
      "name": "WithdrawCredits",
      "outputs": [],
      "payable": false,
      "stateMutability": "nonpayable",
      "type": "function"
    },
    {
      "constant": true,
      "inputs": [],
      "name": "GetCreditBalance",
      "outputs": [
        {
          "internalType": "uint256",
          "name": "",
          "type": "uint256"
        }
      ],
      "payable": false,
      "stateMutability": "view",
      "type": "function"
    },
    {
      "constant": true,
      "inputs": [
        {
          "internalType": "uint256",
          "name": "index",
          "type": "uint256"
        }
      ],
      "name": "GetGameTotals",
      "outputs": [
        {
          "internalType": "uint256",
          "name": "",
          "type": "uint256"
        },
        {
          "internalType": "uint256",
          "name": "",
          "type": "uint256"
        }
      ],
      "payable": false,
      "stateMutability": "view",
      "type": "function"
    },
    {
      "constant": true,
      "inputs": [
        {
          "internalType": "uint256",
          "name": "game_id",
          "type": "uint256"
        }
      ],
      "name": "GetEarnings",
      "outputs": [
        {
          "internalType": "uint256",
          "name": "",
          "type": "uint256"
        },
        {
          "internalType": "uint256",
          "name": "",
          "type": "uint256"
        },
        {
          "internalType": "bool",
          "name": "",
          "type": "bool"
        }
      ],
      "payable": false,
      "stateMutability": "view",
      "type": "function"
    },
    {
      "constant": false,
      "inputs": [
        {
          "internalType": "uint256",
          "name": "game_id",
          "type": "uint256"
        }
      ],
      "name": "ClaimEarnings",
      "outputs": [],
      "payable": false,
      "stateMutability": "nonpayable",
      "type": "function"
    },
    {
      "constant": false,
      "inputs": [
        {
          "internalType": "uint256",
          "name": "amount",
          "type": "uint256"
        },
        {
          "internalType": "enum RedVsBlue.VoteType",
          "name": "vote_type",
          "type": "uint8"
        }
      ],
      "name": "CastVote",
      "outputs": [],
      "payable": false,
      "stateMutability": "nonpayable",
      "type": "function"
    }
  ],
  "bytecode": "0x608060405234801561001057600080fd5b50336000806101000a81548173ffffffffffffffffffffffffffffffffffffffff021916908373ffffffffffffffffffffffffffffffffffffffff1602179055506110e4806100606000396000f3fe60806040526004361061007b5760003560e01c8063d3d6752d1161004e578063d3d6752d14610178578063d509b709146101c0578063e53f03bb146101e2578063ec007ad4146102435761007b565b806375a2e6241461008057806380edef8e146100ab578063af3282dd14610102578063ced4dc821461013d575b600080fd5b34801561008c57600080fd5b50610095610299565b6040518082815260200191505060405180910390f35b3480156100b757600080fd5b506100c06102e3565b604051808273ffffffffffffffffffffffffffffffffffffffff1673ffffffffffffffffffffffffffffffffffffffff16815260200191505060405180910390f35b34801561010e57600080fd5b5061013b6004803603602081101561012557600080fd5b8101908080359060200190929190505050610308565b005b34801561014957600080fd5b506101766004803603602081101561016057600080fd5b81019080803590602001909291905050506105cf565b005b34801561018457600080fd5b506101be6004803603604081101561019b57600080fd5b8101908080359060200190929190803560ff169060200190929190505050610721565b005b6101c8610a5e565b604051808215151515815260200191505060405180910390f35b3480156101ee57600080fd5b5061021b6004803603602081101561020557600080fd5b8101908080359060200190929190505050610ab7565b6040518084815260200183815260200182151515158152602001935050505060405180910390f35b34801561024f57600080fd5b5061027c6004803603602081101561026657600080fd5b8101908080359060200190929190505050611032565b604051808381526020018281526020019250505060405180910390f35b6000600160003373ffffffffffffffffffffffffffffffffffffffff1673ffffffffffffffffffffffffffffffffffffffff16815260200190815260200160002060020154905090565b6000809054906101000a900473ffffffffffffffffffffffffffffffffffffffff1681565b60006080438161031457fe5b0490508082141561038d576040517f08c379a000000000000000000000000000000000000000000000000000000000815260040180806020018281038252601d8152602001807f43616e6e6f7420636c61696d20666f722061637469766520726f756e6400000081525060200191505060405180910390fd5b60001515600160003373ffffffffffffffffffffffffffffffffffffffff1673ffffffffffffffffffffffffffffffffffffffff168152602001908152602001600020600101600084815260200190815260200160002060009054906101000a900460ff16151514610467576040517f08c379a000000000000000000000000000000000000000000000000000000000815260040180806020018281038252601d8152602001807f446f75626c6520636c61696d3f206e617567687479206e61756768747900000081525060200191505060405180910390fd5b600080600061047585610ab7565b8093508194508295505050506000831180156104915750600082115b801561049b575080155b61050d576040517f08c379a000000000000000000000000000000000000000000000000000000000815260040180806020018281038252601f8152602001807f43616e2774206d616b65207768617420796f7520646f6e2774207370656e640081525060200191505060405180910390fd5b60018060003373ffffffffffffffffffffffffffffffffffffffff1673ffffffffffffffffffffffffffffffffffffffff168152602001908152602001600020600101600087815260200190815260200160002060006101000a81548160ff02191690831515021790555082600160003373ffffffffffffffffffffffffffffffffffffffff1673ffffffffffffffffffffffffffffffffffffffff168152602001908152602001600020600201600082825401925050819055505050505050565b600160003373ffffffffffffffffffffffffffffffffffffffff1673ffffffffffffffffffffffffffffffffffffffff16815260200190815260200160002060020154811115610687576040517f08c379a00000000000000000000000000000000000000000000000000000000081526004018080602001828103825260128152602001807f4e6f7420656e6f7567682063726564697473000000000000000000000000000081525060200191505060405180910390fd5b80600160003373ffffffffffffffffffffffffffffffffffffffff1673ffffffffffffffffffffffffffffffffffffffff168152602001908152602001600020600201600082825403925050819055503373ffffffffffffffffffffffffffffffffffffffff166108fc829081150290604051600060405180830381858888f1935050505015801561071d573d6000803e3d6000fd5b5050565b600160003373ffffffffffffffffffffffffffffffffffffffff1673ffffffffffffffffffffffffffffffffffffffff168152602001908152602001600020600201548211156107d9576040517f08c379a00000000000000000000000000000000000000000000000000000000081526004018080602001828103825260128152602001807f4e6f7420656e6f7567682063726564697473000000000000000000000000000081525060200191505060405180910390fd5b6107e1611083565b608043816107eb57fe5b0481600001818152505082816020018181525050818160400190600181111561081057fe5b9081600181111561081d57fe5b815250506000600181111561082e57fe5b82600181111561083a57fe5b14156108735782600260006080438161084f57fe5b048152602001908152602001600020600001600082825401925050819055506108c1565b60018081111561087f57fe5b82600181111561088b57fe5b14156108c0578260026000608043816108a057fe5b048152602001908152602001600020600101600082825401925050819055505b5b82600160003373ffffffffffffffffffffffffffffffffffffffff1673ffffffffffffffffffffffffffffffffffffffff16815260200190815260200160002060020160008282540392505081905550600160003373ffffffffffffffffffffffffffffffffffffffff1673ffffffffffffffffffffffffffffffffffffffff16815260200190815260200160002060000160006080438161095f57fe5b0481526020019081526020016000208190806001815401808255809150509060018203906000526020600020906003020160009091929091909150600082015181600001556020820151816001015560408201518160020160006101000a81548160ff021916908360018111156109d257fe5b02179055505050507f1f2dad43c4d548ea5e7e27b0089d3305f86b897e7761a219e1dad30f015f0c436002600060804381610a0957fe5b048152602001908152602001600020600001546002600060804381610a2a57fe5b04815260200190815260200160002060010154604051808381526020018281526020019250505060405180910390a1505050565b600034600160003373ffffffffffffffffffffffffffffffffffffffff1673ffffffffffffffffffffffffffffffffffffffff168152602001908152602001600020600201600082825401925050819055506001905090565b60008060008060804381610ac757fe5b04905080851415610ad757600080fd5b600080905060008090506000600160003373ffffffffffffffffffffffffffffffffffffffff1673ffffffffffffffffffffffffffffffffffffffff168152602001908152602001600020600101600089815260200190815260200160002060009054906101000a900460ff16905060008090505b600160003373ffffffffffffffffffffffffffffffffffffffff1673ffffffffffffffffffffffffffffffffffffffff16815260200190815260200160002060000160008a81526020019081526020016000208054905081101561101d576000600260008b81526020019081526020016000206000015490506000600260008c8152602001908152602001600020600101549050600160003373ffffffffffffffffffffffffffffffffffffffff1673ffffffffffffffffffffffffffffffffffffffff16815260200190815260200160002060000160008c81526020019081526020016000208381548110610c3e57fe5b9060005260206000209060030201600101548501945080821415610cd557600160003373ffffffffffffffffffffffffffffffffffffffff1673ffffffffffffffffffffffffffffffffffffffff16815260200190815260200160002060000160008c81526020019081526020016000208381548110610cba57fe5b9060005260206000209060030201600101548601955061100e565b60006001811115610ce257fe5b600160003373ffffffffffffffffffffffffffffffffffffffff1673ffffffffffffffffffffffffffffffffffffffff16815260200190815260200160002060000160008d81526020019081526020016000208481548110610d4057fe5b906000526020600020906003020160020160009054906101000a900460ff166001811115610d6a57fe5b148015610d7657508082115b15610e735781600160003373ffffffffffffffffffffffffffffffffffffffff1673ffffffffffffffffffffffffffffffffffffffff16815260200190815260200160002060000160008d81526020019081526020016000208481548110610dda57fe5b906000526020600020906003020160010154820281610df557fe5b0486019550600160003373ffffffffffffffffffffffffffffffffffffffff1673ffffffffffffffffffffffffffffffffffffffff16815260200190815260200160002060000160008c81526020019081526020016000208381548110610e5857fe5b9060005260206000209060030201600101548601955061100d565b600180811115610e7f57fe5b600160003373ffffffffffffffffffffffffffffffffffffffff1673ffffffffffffffffffffffffffffffffffffffff16815260200190815260200160002060000160008d81526020019081526020016000208481548110610edd57fe5b906000526020600020906003020160020160009054906101000a900460ff166001811115610f0757fe5b148015610f1357508181115b1561100c5780600160003373ffffffffffffffffffffffffffffffffffffffff1673ffffffffffffffffffffffffffffffffffffffff16815260200190815260200160002060000160008d81526020019081526020016000208481548110610f7757fe5b906000526020600020906003020160010154830281610f9257fe5b0486019550600160003373ffffffffffffffffffffffffffffffffffffffff1673ffffffffffffffffffffffffffffffffffffffff16815260200190815260200160002060000160008c81526020019081526020016000208381548110610ff557fe5b906000526020600020906003020160010154860195505b5b5b50508080600101915050610b4c565b50828282965096509650505050509193909250565b6000806080438161103f57fe5b0483111561104c57600080fd5b6002600084815260200190815260200160002060000154600260008581526020019081526020016000206001015491509150915091565b60405180606001604052806000815260200160008152602001600060018111156110a957fe5b8152509056fea265627a7a72315820b22376b71b5d9598f4bf218e152373f7b5a6c7c7986d6aa4f57daa98deeb3d0064736f6c63430005100032",
  "source": "pragma solidity >=0.4.22 <0.8.0;\n\n/*\n *  Idea - RedVsBlue is a one-side-wins-it-all voting game for degens.\n *\n *  There are two sides, Red, and Blue. You pick which one you want and cast\n *  a vote for the corresponding side. Each poll runs for some specified amount\n *  of time - this can be done daily or weekly by the contract owner.\n *\n *  The contract address collects 0.2% (0.002) of the voted total for sponsoring\n *  the next red-vs-blue poll.\n *\n *  The voting ends after the specified interval and people who have bet on the\n *  winning side are paid out per the following math:\n *\n *  u0 = user's bet on the winning team\n *  w = winning total bets\n *  l = losing total bets (l < w!)\n *\n *  fee = 0.002                             // .2% fee for contract maintenence\n *  profit = (u0 / w) * ((1.0 - fee) * l)\n *  fees   = (u0 / w) * fee * l\n *\n *  In the event of a tie (oh so rare!), we flip a coin and truly leave things\n *  to lady luck.\n *\n *  TODO:\n *  =====\n *  As it stands, one address can only make one vote. This is likely ok.\n *\n *  Not sure how we can deploy the PeriodicPoll each period automatically once\n *  a poll ends. This might have to be a service we run on VM which responds to\n *  the poll closed event and has the delegation to issue the next event etc.\n *      -> This could even be a SaaS idea for blockchain etc\n *      -> A responder for web3 events (ifttt?)\n */\ncontract RedVsBlue {\n    enum VoteType { VOTE_RED, VOTE_BLUE }\n\n    uint constant BLOCK_DIV = 128;\n\n    /*\n     *  A `Vote` is the core of the is contract, this corresponds to some amount\n     *  of ether (or X) being bet for the specified block number. The block\n     *  number is of significance since each bet that a user makes falls within\n     *  a `game` which spans `BLOCK_DIV` blocks.\n     */\n    struct Vote {\n        uint     game_id;   /* block.number / `BLOCK_DIV` */\n        uint     amount;    /* credits, 1 eth = 1000 credits */\n        VoteType vote_type; /* red or blue? */\n    }\n\n    /*\n     *  A `Poll` represents one of the `BLOCK_DIV` block polls.\n     */\n    struct Poll {\n        uint red_total;\n        uint blue_total;\n    }\n\n    /*\n     *  A `Voter` represents one player's balance, votes and amount in play.\n     */\n    struct Voter {\n        mapping(uint => Vote[]) votes;\n        mapping(uint => bool) claimed;\n        uint credits;\n    }\n\n    address public owner_address;\n    mapping(address => Voter) private voters;\n    mapping(uint => Poll) private poll_totals;\n\n    /*\n     *  The vote broadcast will automatically encode the block number that the\n     *  log was created with. This will emit the current rounds totals for the\n     *  red and blue votes so any active UIs may update their values (in\n     *  stream).\n     */\n    event VoteBoradcastEvent(uint red_amount, uint blue_amount);\n\n    constructor() public {\n        owner_address = msg.sender;\n    }\n\n    function BuyCredits() public payable returns (bool) {\n        // TODO: SafeMath!\n        voters[msg.sender].credits += msg.value;\n        return true;\n    }\n\n    function WithdrawCredits(uint amount) public {\n        require(amount <= voters[msg.sender].credits, \"Not enough credits\");\n        voters[msg.sender].credits -= amount;\n        msg.sender.transfer(amount);\n    }\n\n    function GetCreditBalance() public view returns (uint) {\n        return voters[msg.sender].credits;\n    }\n\n    function GetGameTotals(uint index) public view returns (uint, uint) {\n        require(index <=  (block.number / BLOCK_DIV));\n        return (poll_totals[index].red_total, poll_totals[index].blue_total);\n    }\n\n    function GetEarnings(uint game_id) public view returns (uint, uint, bool) {\n        uint current_game_id = block.number / BLOCK_DIV;\n        require(game_id != current_game_id);\n\n        uint earned = 0;      /* Winnings, and original investment counter */\n        uint spent = 0;      /* Spend counter - loss spend only here - view only */\n        bool claimed = voters[msg.sender].claimed[game_id];\n\n        for (uint i = 0; i < voters[msg.sender].votes[game_id].length; i++) {\n            uint r = poll_totals[game_id].red_total;\n            uint b = poll_totals[game_id].blue_total;\n            spent += voters[msg.sender].votes[game_id][i].amount;\n            if (r == b) {\n                earned += voters[msg.sender].votes[game_id][i].amount;\n            } else if (voters[msg.sender].votes[game_id][i].vote_type == VoteType.VOTE_RED && r > b) {\n                earned += ((b * voters[msg.sender].votes[game_id][i].amount) / r);\n                earned += voters[msg.sender].votes[game_id][i].amount;\n            } else if (voters[msg.sender].votes[game_id][i].vote_type == VoteType.VOTE_BLUE && b > r) {\n                earned += ((r * voters[msg.sender].votes[game_id][i].amount) / b);\n                earned += voters[msg.sender].votes[game_id][i].amount;\n            }\n        }\n        return (earned, spent, claimed);\n    }\n\n    function ClaimEarnings(uint game_id) public {\n        uint current_game_id = block.number / BLOCK_DIV;\n        require(game_id != current_game_id, \"Cannot claim for active round\");\n        require(voters[msg.sender].claimed[game_id] == false, \"Double claim? naughty naughty\");\n\n        uint earned;\n        uint spent;\n        bool claimed;\n        (earned, spent, claimed) = GetEarnings(game_id);\n        require(earned > 0 && spent > 0 && !claimed, \"Can't make what you don't spend\");\n\n        voters[msg.sender].claimed[game_id] = true;\n        voters[msg.sender].credits += earned;\n        return;\n    }\n\n    function CastVote(uint amount, VoteType vote_type) public {\n        require(amount <= voters[msg.sender].credits, \"Not enough credits\");\n        Vote memory v;\n        v.game_id = block.number / BLOCK_DIV;\n        v.amount = amount;\n        v.vote_type = vote_type;\n        if (vote_type == VoteType.VOTE_RED) {\n            poll_totals[block.number / BLOCK_DIV].red_total += amount;\n        } else if (vote_type == VoteType.VOTE_BLUE) {\n            poll_totals[block.number / BLOCK_DIV].blue_total += amount;\n        }\n        voters[msg.sender].credits -= amount;\n        voters[msg.sender].votes[block.number / BLOCK_DIV].push(v);\n        emit VoteBoradcastEvent(\n            poll_totals[block.number / BLOCK_DIV].red_total,\n            poll_totals[block.number / BLOCK_DIV].blue_total);\n    }\n}\n\n",
  "sourcePath": "/home/shaba/work/github/crypto/Red-vs-Blu/red-vs-blue/contracts/RedVsBlue.sol",
  "compiler": {
    "name": "solc",
    "version": "0.5.16+commit.9c3226ce.Emscripten.clang"
  },
  "schemaVersion": "3.2.3",
  "updatedAt": "2020-08-26T19:08:14.853Z",
  "networkType": "ethereum",
  "devdoc": {
    "methods": {}
  },
  "userdoc": {
    "methods": {}
  }
}